{
  "contractName": "LightRail",
  "abi": [
    {
      "inputs": [],
      "payable": false,
      "stateMutability": "nonpayable",
      "type": "constructor"
    },
    {
      "anonymous": false,
      "inputs": [
        {
          "indexed": true,
          "internalType": "address",
          "name": "previousOwner",
          "type": "address"
        },
        {
          "indexed": true,
          "internalType": "address",
          "name": "newOwner",
          "type": "address"
        }
      ],
      "name": "OwnershipTransferred",
      "type": "event"
    },
    {
      "constant": true,
      "inputs": [
        {
          "internalType": "address",
          "name": "",
          "type": "address"
        }
      ],
      "name": "Choose",
      "outputs": [
        {
          "internalType": "uint8",
          "name": "",
          "type": "uint8"
        }
      ],
      "payable": false,
      "stateMutability": "view",
      "type": "function"
    },
    {
      "constant": true,
      "inputs": [
        {
          "internalType": "address",
          "name": "",
          "type": "address"
        }
      ],
      "name": "cooldownTime",
      "outputs": [
        {
          "internalType": "uint256",
          "name": "",
          "type": "uint256"
        }
      ],
      "payable": false,
      "stateMutability": "view",
      "type": "function"
    },
    {
      "constant": true,
      "inputs": [],
      "name": "isOwner",
      "outputs": [
        {
          "internalType": "bool",
          "name": "",
          "type": "bool"
        }
      ],
      "payable": false,
      "stateMutability": "view",
      "type": "function"
    },
    {
      "constant": true,
      "inputs": [],
      "name": "owner",
      "outputs": [
        {
          "internalType": "address",
          "name": "",
          "type": "address"
        }
      ],
      "payable": false,
      "stateMutability": "view",
      "type": "function"
    },
    {
      "constant": false,
      "inputs": [],
      "name": "renounceOwnership",
      "outputs": [],
      "payable": false,
      "stateMutability": "nonpayable",
      "type": "function"
    },
    {
      "constant": true,
      "inputs": [
        {
          "internalType": "uint256",
          "name": "",
          "type": "uint256"
        }
      ],
      "name": "stations",
      "outputs": [
        {
          "internalType": "string",
          "name": "name",
          "type": "string"
        },
        {
          "internalType": "uint8",
          "name": "level",
          "type": "uint8"
        },
        {
          "internalType": "uint32",
          "name": "CrowdDensity",
          "type": "uint32"
        }
      ],
      "payable": false,
      "stateMutability": "view",
      "type": "function"
    },
    {
      "constant": false,
      "inputs": [
        {
          "internalType": "address",
          "name": "newOwner",
          "type": "address"
        }
      ],
      "name": "transferOwnership",
      "outputs": [],
      "payable": false,
      "stateMutability": "nonpayable",
      "type": "function"
    },
    {
      "constant": true,
      "inputs": [],
      "name": "JudgeOwner",
      "outputs": [
        {
          "internalType": "bool",
          "name": "",
          "type": "bool"
        }
      ],
      "payable": false,
      "stateMutability": "view",
      "type": "function"
    },
    {
      "constant": false,
      "inputs": [
        {
          "internalType": "string",
          "name": "_name",
          "type": "string"
        },
        {
          "internalType": "uint8",
          "name": "level",
          "type": "uint8"
        },
        {
          "internalType": "uint32",
          "name": "CrowdDensity",
          "type": "uint32"
        }
      ],
      "name": "createStaion",
      "outputs": [
        {
          "internalType": "string",
          "name": "",
          "type": "string"
        },
        {
          "internalType": "uint8",
          "name": "",
          "type": "uint8"
        },
        {
          "internalType": "uint32",
          "name": "",
          "type": "uint32"
        }
      ],
      "payable": false,
      "stateMutability": "nonpayable",
      "type": "function"
    },
    {
      "constant": true,
      "inputs": [],
      "name": "getStaionNum",
      "outputs": [
        {
          "internalType": "uint256",
          "name": "",
          "type": "uint256"
        }
      ],
      "payable": false,
      "stateMutability": "view",
      "type": "function"
    },
    {
      "constant": true,
      "inputs": [
        {
          "internalType": "uint256",
          "name": "id",
          "type": "uint256"
        }
      ],
      "name": "getStaion",
      "outputs": [
        {
          "internalType": "string",
          "name": "",
          "type": "string"
        },
        {
          "internalType": "uint8",
          "name": "",
          "type": "uint8"
        },
        {
          "internalType": "uint32",
          "name": "",
          "type": "uint32"
        },
        {
          "internalType": "uint256",
          "name": "",
          "type": "uint256"
        }
      ],
      "payable": false,
      "stateMutability": "view",
      "type": "function"
    },
    {
      "constant": false,
      "inputs": [
        {
          "internalType": "uint256",
          "name": "id",
          "type": "uint256"
        }
      ],
      "name": "clearCrowDensity",
      "outputs": [],
      "payable": false,
      "stateMutability": "nonpayable",
      "type": "function"
    },
    {
      "constant": false,
      "inputs": [
        {
          "internalType": "uint256",
          "name": "StartToMidNum",
          "type": "uint256"
        }
      ],
      "name": "coolTimeCount",
      "outputs": [
        {
          "internalType": "uint256",
          "name": "",
          "type": "uint256"
        }
      ],
      "payable": false,
      "stateMutability": "nonpayable",
      "type": "function"
    },
    {
      "constant": true,
      "inputs": [],
      "name": "cooldownTimeView",
      "outputs": [
        {
          "internalType": "uint256",
          "name": "",
          "type": "uint256"
        }
      ],
      "payable": false,
      "stateMutability": "view",
      "type": "function"
    },
    {
      "constant": false,
      "inputs": [],
      "name": "addCrowd",
      "outputs": [
        {
          "internalType": "uint32",
          "name": "",
          "type": "uint32"
        }
      ],
      "payable": false,
      "stateMutability": "nonpayable",
      "type": "function"
    },
    {
      "constant": false,
      "inputs": [],
      "name": "subCrowd",
      "outputs": [
        {
          "internalType": "uint32",
          "name": "",
          "type": "uint32"
        }
      ],
      "payable": false,
      "stateMutability": "nonpayable",
      "type": "function"
    },
    {
      "constant": true,
      "inputs": [
        {
          "internalType": "uint256",
          "name": "id",
          "type": "uint256"
        }
      ],
      "name": "levelview",
      "outputs": [
        {
          "internalType": "uint8",
          "name": "",
          "type": "uint8"
        }
      ],
      "payable": false,
      "stateMutability": "view",
      "type": "function"
    },
    {
      "constant": false,
      "inputs": [
        {
          "internalType": "uint256",
          "name": "id",
          "type": "uint256"
        }
      ],
      "name": "updateLevel",
      "outputs": [
        {
          "internalType": "uint8",
          "name": "",
          "type": "uint8"
        }
      ],
      "payable": false,
      "stateMutability": "nonpayable",
      "type": "function"
    },
    {
      "constant": true,
      "inputs": [
        {
          "internalType": "uint8",
          "name": "stationNumber",
          "type": "uint8"
        },
        {
          "internalType": "uint8",
          "name": "id",
          "type": "uint8"
        }
      ],
      "name": "PriceBetween",
      "outputs": [
        {
          "internalType": "uint256",
          "name": "",
          "type": "uint256"
        },
        {
          "internalType": "uint8",
          "name": "",
          "type": "uint8"
        }
      ],
      "payable": false,
      "stateMutability": "view",
      "type": "function"
    }
  ],
  "bytecode": "0x608060405234801561001057600080fd5b5061001f6100df60201b60201c565b6000806101000a81548173ffffffffffffffffffffffffffffffffffffffff021916908373ffffffffffffffffffffffffffffffffffffffff1602179055506000809054906101000a900473ffffffffffffffffffffffffffffffffffffffff1673ffffffffffffffffffffffffffffffffffffffff16600073ffffffffffffffffffffffffffffffffffffffff167f8be0079c531659141344cd1fd0a4f28419497f9722a3daafe3b4186f6b6457e060405160405180910390a36100e7565b600033905090565b611980806100f66000396000f3fe608060405234801561001057600080fd5b50600436106101215760003560e01c8063715018a6116100ad57806392f859db1161007157806392f859db146105a3578063a9a5dd411461066a578063c3b5db91146106c9578063ccb83b351461070b578063f2fde38b1461076957610121565b8063715018a6146104b757806384890fc2146104c15780638da5cb5b146104ef5780638f32d59b1461053957806392e0150b1461055b57610121565b806322585e5a116100f457806322585e5a146103ad578063428904ab146103f557806344486af81461041357806347f8c5bf1461046b57806354f7bc6f1461049557610121565b8063037cf65114610126578063082034a6146102975780630fb1f0e6146102b557806311a9593f146102df575b600080fd5b6101fc6004803603606081101561013c57600080fd5b810190808035906020019064010000000081111561015957600080fd5b82018360208201111561016b57600080fd5b8035906020019184600183028401116401000000008311171561018d57600080fd5b91908080601f016020809104026020016040519081016040528093929190818152602001838380828437600081840152601f19601f820116905080830192505050505050509192919290803560ff169060200190929190803563ffffffff1690602001909291905050506107ad565b60405180806020018460ff1660ff1681526020018363ffffffff1663ffffffff168152602001828103825285818151815260200191508051906020019080838360005b8381101561025a57808201518184015260208101905061023f565b50505050905090810190601f1680156102875780820380516001836020036101000a031916815260200191505b5094505050505060405180910390f35b61029f610a1f565b6040518082815260200191505060405180910390f35b6102bd610a66565b604051808263ffffffff1663ffffffff16815260200191505060405180910390f35b61030b600480360360208110156102f557600080fd5b8101908080359060200190929190505050610b79565b60405180806020018560ff1660ff1681526020018463ffffffff1663ffffffff168152602001838152602001828103825286818151815260200191508051906020019080838360005b8381101561036f578082015181840152602081019050610354565b50505050905090810190601f16801561039c5780820380516001836020036101000a031916815260200191505b509550505050505060405180910390f35b6103d9600480360360208110156103c357600080fd5b8101908080359060200190929190505050610ca5565b604051808260ff1660ff16815260200191505060405180910390f35b6103fd610cda565b6040518082815260200191505060405180910390f35b6104556004803603602081101561042957600080fd5b81019080803573ffffffffffffffffffffffffffffffffffffffff169060200190929190505050610cec565b6040518082815260200191505060405180910390f35b610473610d04565b604051808263ffffffff1663ffffffff16815260200191505060405180910390f35b61049d610e17565b604051808215151515815260200191505060405180910390f35b6104bf610e9a565b005b6104ed600480360360208110156104d757600080fd5b8101908080359060200190929190505050610fd3565b005b6104f76110af565b604051808273ffffffffffffffffffffffffffffffffffffffff1673ffffffffffffffffffffffffffffffffffffffff16815260200191505060405180910390f35b6105416110d8565b604051808215151515815260200191505060405180910390f35b6105876004803603602081101561057157600080fd5b8101908080359060200190929190505050611136565b604051808260ff1660ff16815260200191505060405180910390f35b6105cf600480360360208110156105b957600080fd5b8101908080359060200190929190505050611316565b60405180806020018460ff1660ff1681526020018363ffffffff1663ffffffff168152602001828103825285818151815260200191508051906020019080838360005b8381101561062d578082015181840152602081019050610612565b50505050905090810190601f16801561065a5780820380516001836020036101000a031916815260200191505b5094505050505060405180910390f35b6106a66004803603604081101561068057600080fd5b81019080803560ff169060200190929190803560ff169060200190929190505050611402565b604051808381526020018260ff1660ff1681526020019250505060405180910390f35b6106f5600480360360208110156106df57600080fd5b8101908080359060200190929190505050611598565b6040518082815260200191505060405180910390f35b61074d6004803603602081101561072157600080fd5b81019080803573ffffffffffffffffffffffffffffffffffffffff16906020019092919050505061162c565b604051808260ff1660ff16815260200191505060405180910390f35b6107ab6004803603602081101561077f57600080fd5b81019080803573ffffffffffffffffffffffffffffffffffffffff16906020019092919050505061164c565b005b60606000806107ba6110d8565b61082c576040517f08c379a00000000000000000000000000000000000000000000000000000000081526004018080602001828103825260208152602001807f4f776e61626c653a2063616c6c6572206973206e6f7420746865206f776e657281525060200191505060405180910390fd5b60006108f860018060405180606001604052808b81526020018a60ff1681526020018963ffffffff1681525090806001815401808255809150509060018203906000526020600020906002020160009091929091909150600082015181600001908051906020019061089f929190611880565b5060208201518160010160006101000a81548160ff021916908360ff16021790555060408201518160010160016101000a81548163ffffffff021916908363ffffffff16021790555050506116d290919063ffffffff16565b90506001818154811061090757fe5b90600052602060002090600202016000016001828154811061092557fe5b906000526020600020906002020160010160009054906101000a900460ff166001838154811061095157fe5b906000526020600020906002020160010160019054906101000a900463ffffffff16828054600181600116156101000203166002900480601f016020809104026020016040519081016040528092919081815260200182805460018160011615610100020316600290048015610a085780601f106109dd57610100808354040283529160200191610a08565b820191906000526020600020905b8154815290600101906020018083116109eb57829003601f168201915b505050505092509350935093505093509350939050565b6000600260003373ffffffffffffffffffffffffffffffffffffffff1673ffffffffffffffffffffffffffffffffffffffff16815260200190815260200160002054905090565b600080600360003373ffffffffffffffffffffffffffffffffffffffff1673ffffffffffffffffffffffffffffffffffffffff16815260200190815260200160002060009054906101000a900460ff169050610b026001808360ff1681548110610acc57fe5b906000526020600020906002020160010160019054906101000a900463ffffffff1663ffffffff166116e990919063ffffffff16565b60018260ff1681548110610b1257fe5b906000526020600020906002020160010160016101000a81548163ffffffff021916908363ffffffff16021790555060018160ff1681548110610b5157fe5b906000526020600020906002020160010160019054906101000a900463ffffffff1691505090565b6060600080600060018581548110610b8d57fe5b906000526020600020906002020160000160018681548110610bab57fe5b906000526020600020906002020160010160009054906101000a900460ff1660018781548110610bd757fe5b906000526020600020906002020160010160019054906101000a900463ffffffff1687838054600181600116156101000203166002900480601f016020809104026020016040519081016040528092919081815260200182805460018160011615610100020316600290048015610c8f5780601f10610c6457610100808354040283529160200191610c8f565b820191906000526020600020905b815481529060010190602001808311610c7257829003601f168201915b5050505050935093509350935093509193509193565b600060018281548110610cb457fe5b906000526020600020906002020160010160009054906101000a900460ff169050919050565b60008060018054905090508091505090565b60026020528060005260406000206000915090505481565b600080600360003373ffffffffffffffffffffffffffffffffffffffff1673ffffffffffffffffffffffffffffffffffffffff16815260200190815260200160002060009054906101000a900460ff169050610da06001808360ff1681548110610d6a57fe5b906000526020600020906002020160010160019054906101000a900463ffffffff1663ffffffff1661170c90919063ffffffff16565b60018260ff1681548110610db057fe5b906000526020600020906002020160010160016101000a81548163ffffffff021916908363ffffffff16021790555060018160ff1681548110610def57fe5b906000526020600020906002020160010160019054906101000a900463ffffffff1691505090565b6000610e216110d8565b610e93576040517f08c379a00000000000000000000000000000000000000000000000000000000081526004018080602001828103825260208152602001807f4f776e61626c653a2063616c6c6572206973206e6f7420746865206f776e657281525060200191505060405180910390fd5b6001905090565b610ea26110d8565b610f14576040517f08c379a00000000000000000000000000000000000000000000000000000000081526004018080602001828103825260208152602001807f4f776e61626c653a2063616c6c6572206973206e6f7420746865206f776e657281525060200191505060405180910390fd5b600073ffffffffffffffffffffffffffffffffffffffff166000809054906101000a900473ffffffffffffffffffffffffffffffffffffffff1673ffffffffffffffffffffffffffffffffffffffff167f8be0079c531659141344cd1fd0a4f28419497f9722a3daafe3b4186f6b6457e060405160405180910390a360008060006101000a81548173ffffffffffffffffffffffffffffffffffffffff021916908373ffffffffffffffffffffffffffffffffffffffff160217905550565b610fdb6110d8565b61104d576040517f08c379a00000000000000000000000000000000000000000000000000000000081526004018080602001828103825260208152602001807f4f776e61626c653a2063616c6c6572206973206e6f7420746865206f776e657281525060200191505060405180910390fd5b60008090505b818160ff16116110ab57600060018260ff168154811061106f57fe5b906000526020600020906002020160010160016101000a81548163ffffffff021916908363ffffffff1602179055508080600101915050611053565b5050565b60008060009054906101000a900473ffffffffffffffffffffffffffffffffffffffff16905090565b60008060009054906101000a900473ffffffffffffffffffffffffffffffffffffffff1673ffffffffffffffffffffffffffffffffffffffff1661111a611734565b73ffffffffffffffffffffffffffffffffffffffff1614905090565b600060506001838154811061114757fe5b906000526020600020906002020160010160019054906101000a900463ffffffff1663ffffffff16116111b15760006001838154811061118357fe5b906000526020600020906002020160010160006101000a81548160ff021916908360ff1602179055506112e3565b6050600183815481106111c057fe5b906000526020600020906002020160010160019054906101000a900463ffffffff1663ffffffff1611801561122a575060c8600183815481106111ff57fe5b906000526020600020906002020160010160019054906101000a900463ffffffff1663ffffffff1611155b1561126b57600180838154811061123d57fe5b906000526020600020906002020160010160006101000a81548160ff021916908360ff1602179055506112e2565b60c86001838154811061127a57fe5b906000526020600020906002020160010160019054906101000a900463ffffffff1663ffffffff1611156112e1576002600183815481106112b757fe5b906000526020600020906002020160010160006101000a81548160ff021916908360ff1602179055505b5b5b600182815481106112f057fe5b906000526020600020906002020160010160009054906101000a900460ff169050919050565b6001818154811061132357fe5b9060005260206000209060020201600091509050806000018054600181600116156101000203166002900480601f0160208091040260200160405190810160405280929190818152602001828054600181600116156101000203166002900480156113cf5780601f106113a4576101008083540402835291602001916113cf565b820191906000526020600020905b8154815290600101906020018083116113b257829003601f168201915b5050505050908060010160009054906101000a900460ff16908060010160019054906101000a900463ffffffff16905083565b6000806000809050600080905060008090508660ff1660001115801561142c575060058760ff1611155b156114405766038d7ea4c6800091506114ab565b60058760ff16118015611457575060108760ff1611155b1561146b57660e35fa931a000091506114aa565b60108760ff1611156114a95760108703965066038d7ea4c680006001600a8960ff168161149457fe5b060260040160ff160266ffffffffffffff1691505b5b5b600060018760ff16815481106114bd57fe5b906000526020600020906002020160010160009054906101000a900460ff1660ff1614156114f45766038d7ea4c680009050611583565b6001808760ff168154811061150557fe5b906000526020600020906002020160010160009054906101000a900460ff1660ff16141561153c5766071afd498d00009050611582565b600260018760ff168154811061154e57fe5b906000526020600020906002020160010160009054906101000a900460ff1660ff16141561158157660e35fa931a000090505b5b5b81810192508286945094505050509250929050565b600061ea606005830202600260003373ffffffffffffffffffffffffffffffffffffffff1673ffffffffffffffffffffffffffffffffffffffff16815260200190815260200160002081905550600260003373ffffffffffffffffffffffffffffffffffffffff1673ffffffffffffffffffffffffffffffffffffffff168152602001908152602001600020549050919050565b60036020528060005260406000206000915054906101000a900460ff1681565b6116546110d8565b6116c6576040517f08c379a00000000000000000000000000000000000000000000000000000000081526004018080602001828103825260208152602001807f4f776e61626c653a2063616c6c6572206973206e6f7420746865206f776e657281525060200191505060405180910390fd5b6116cf8161173c565b50565b6000828211156116de57fe5b818303905092915050565b60008263ffffffff168263ffffffff16111561170157fe5b818303905092915050565b60008082840190508363ffffffff168163ffffffff16101561172a57fe5b8091505092915050565b600033905090565b600073ffffffffffffffffffffffffffffffffffffffff168173ffffffffffffffffffffffffffffffffffffffff1614156117c2576040517f08c379a00000000000000000000000000000000000000000000000000000000081526004018080602001828103825260268152602001806119266026913960400191505060405180910390fd5b8073ffffffffffffffffffffffffffffffffffffffff166000809054906101000a900473ffffffffffffffffffffffffffffffffffffffff1673ffffffffffffffffffffffffffffffffffffffff167f8be0079c531659141344cd1fd0a4f28419497f9722a3daafe3b4186f6b6457e060405160405180910390a3806000806101000a81548173ffffffffffffffffffffffffffffffffffffffff021916908373ffffffffffffffffffffffffffffffffffffffff16021790555050565b828054600181600116156101000203166002900490600052602060002090601f016020900481019282601f106118c157805160ff19168380011785556118ef565b828001600101855582156118ef579182015b828111156118ee5782518255916020019190600101906118d3565b5b5090506118fc9190611900565b5090565b61192291905b8082111561191e576000816000905550600101611906565b5090565b9056fe4f776e61626c653a206e6577206f776e657220697320746865207a65726f2061646472657373a265627a7a7231582034cb95169a8fd59527ebf7fdac0a86aba98bb344a87e913800079e22db1bc01d64736f6c63430005100032",
  "source": "pragma solidity ^0.5.10;\r\n\r\nimport \"./ownable.sol\";\r\nimport \"./safemath.sol\";\r\n\r\n\r\ncontract LightRail is Ownable {\r\n    //OpenZeppelinSafeMath\r\n    using SafeMath for uint256;\r\n    using SafeMath32 for uint32;\r\n    using SafeMath8 for uint8;\r\n\r\n    //\r\n    constructor() public {}\r\n\r\n    struct Station {\r\n        //\r\n        string name;\r\n        uint8 level; //\r\n        uint32 CrowdDensity; //\r\n    }\r\n\r\n    Station[] public stations; //\r\n\r\n\r\n    mapping(address => uint256) public cooldownTime; //\r\n\r\n    mapping(address => uint8) public Choose;\r\n\r\n    function JudgeOwner() public view onlyOwner returns (bool) {\r\n        return true;\r\n    }\r\n\r\n    //\r\n    function createStaion(string memory _name, uint8 level, uint32 CrowdDensity) public onlyOwner returns (string memory, uint8, uint32){\r\n        //-1id\r\n        uint256 id = stations.push(Station(_name, level, CrowdDensity)).sub(1);\r\n        //idToStation[id] = stations[id];\r\n\r\n        return (\r\n            stations[id].name,\r\n            stations[id].level,\r\n            stations[id].CrowdDensity\r\n        );\r\n    }\r\n\r\n    //\r\n    function getStaionNum() public view returns (uint256) {\r\n        uint256 Num = stations.length;\r\n        return (Num);\r\n    }\r\n\r\n    //\r\n    function getStaion(uint256 id)\r\n        public\r\n        view\r\n        returns (\r\n            string memory,\r\n            uint8,\r\n            uint32,\r\n            uint256\r\n        )\r\n    {\r\n        return (\r\n            stations[id].name,\r\n            stations[id].level,\r\n            stations[id].CrowdDensity,\r\n            id\r\n        );\r\n    }\r\n\r\n    //levelcrowdDensity\r\n    function clearCrowDensity(uint256 id) public onlyOwner {\r\n        for (uint8 index = 0; index <= id; index++) {\r\n            stations[index].CrowdDensity = 0;\r\n        }\r\n    }\r\n\r\n    //\r\n    function coolTimeCount(uint256 StartToMidNum) public returns (uint256) {\r\n        //51\r\n        cooldownTime[msg.sender] = StartToMidNum * 5 *60000;\r\n        return cooldownTime[msg.sender];\r\n    }\r\n\r\n    function cooldownTimeView() public view returns (uint256) {\r\n        return cooldownTime[msg.sender];\r\n    }\r\n\r\n\r\n\r\n    //\r\n\r\n    function addCrowd() public returns (uint32) {\r\n        //\r\n        uint8 id = Choose[msg.sender];\r\n        stations[id].CrowdDensity = stations[id].CrowdDensity.add(1);\r\n        return stations[id].CrowdDensity;\r\n    }\r\n\r\n    function subCrowd() public returns (uint32) {\r\n        uint8 id = Choose[msg.sender];\r\n        stations[id].CrowdDensity = stations[id].CrowdDensity.sub(1);\r\n        return stations[id].CrowdDensity;\r\n    }\r\n\r\n    //level=>PriceBetween()\r\n    function levelview(uint256 id) public view returns (uint8) {\r\n        return stations[id].level;\r\n    }\r\n\r\n\r\n    //level,gas\r\n    function updateLevel(uint256 id) public returns (uint8) {\r\n        if (stations[id].CrowdDensity <= 80) {\r\n            stations[id].level = 0;\r\n        } else if (\r\n            stations[id].CrowdDensity > 80 && stations[id].CrowdDensity <= 200\r\n        ) {\r\n            stations[id].level = 1;\r\n        } else if (stations[id].CrowdDensity > 200) {\r\n            stations[id].level = 2;\r\n        }\r\n        return stations[id].level;\r\n    }\r\n\r\n    //=>GetVote()\r\n    function PriceBetween(uint8 stationNumber, uint8 id) public view returns (uint, uint8) {\r\n        uint price = 0;\r\n        uint stationNumberPrice = 0;\r\n        uint levelPrice = 0;\r\n        if (0 <= stationNumber && stationNumber <= 5) {\r\n            stationNumberPrice = 0.001 ether;//1\r\n        } else if (stationNumber > 5 && stationNumber <= 16) {\r\n            stationNumberPrice = 0.004 ether;\r\n        } else if (stationNumber > 16) {\r\n            stationNumber -= 16;\r\n            stationNumberPrice = (4 + ((stationNumber % 10) * 1))*0.001 ether;\r\n        }\r\n\r\n        if (stations[id].level == 0) {\r\n            //\r\n            levelPrice =  0.001 ether ;\r\n        } else if (stations[id].level == 1) {\r\n            //\r\n            levelPrice = 2* 0.001 ether;\r\n        } else if (stations[id].level == 2) {\r\n            //\r\n            levelPrice = 4* 0.001 ether;\r\n        }\r\n        price = levelPrice + stationNumberPrice;\r\n        return (price, id);\r\n    }\r\n}\r\n",
  "sourcePath": "D:\\blockChain\\TrainDiversionSystem\\contracts\\LightRail.sol",
  "compiler": {
    "name": "solc",
    "version": "0.5.16+commit.9c3226ce.Emscripten.clang"
  },
  "schemaVersion": "3.0.22",
  "updatedAt": "2020-06-12T15:16:00.715Z",
  "devdoc": {
    "methods": {
      "isOwner()": {
        "details": "Returns true if the caller is the current owner."
      },
      "owner()": {
        "details": "Returns the address of the current owner."
      },
      "renounceOwnership()": {
        "details": "Leaves the contract without owner. It will not be possible to call `onlyOwner` functions anymore. Can only be called by the current owner.      * NOTE: Renouncing ownership will leave the contract without an owner, thereby removing any functionality that is only available to the owner."
      },
      "transferOwnership(address)": {
        "details": "Transfers ownership of the contract to a new account (`newOwner`). Can only be called by the current owner."
      }
    }
  },
  "userdoc": {
    "methods": {}
  }
}