{
  "contractName": "PayVote",
  "abi": [
    {
      "anonymous": false,
      "inputs": [
        {
          "indexed": true,
          "internalType": "address",
          "name": "previousOwner",
          "type": "address"
        },
        {
          "indexed": true,
          "internalType": "address",
          "name": "newOwner",
          "type": "address"
        }
      ],
      "name": "OwnershipTransferred",
      "type": "event"
    },
    {
      "constant": true,
      "inputs": [
        {
          "internalType": "address",
          "name": "",
          "type": "address"
        }
      ],
      "name": "Choose",
      "outputs": [
        {
          "internalType": "uint8",
          "name": "",
          "type": "uint8"
        }
      ],
      "payable": false,
      "stateMutability": "view",
      "type": "function"
    },
    {
      "constant": true,
      "inputs": [],
      "name": "JudgeOwner",
      "outputs": [
        {
          "internalType": "bool",
          "name": "",
          "type": "bool"
        }
      ],
      "payable": false,
      "stateMutability": "view",
      "type": "function"
    },
    {
      "constant": true,
      "inputs": [
        {
          "internalType": "uint8",
          "name": "stationNumber",
          "type": "uint8"
        },
        {
          "internalType": "uint8",
          "name": "id",
          "type": "uint8"
        }
      ],
      "name": "PriceBetween",
      "outputs": [
        {
          "internalType": "uint256",
          "name": "",
          "type": "uint256"
        },
        {
          "internalType": "uint8",
          "name": "",
          "type": "uint8"
        }
      ],
      "payable": false,
      "stateMutability": "view",
      "type": "function"
    },
    {
      "constant": true,
      "inputs": [
        {
          "internalType": "address",
          "name": "",
          "type": "address"
        }
      ],
      "name": "VoteNum",
      "outputs": [
        {
          "internalType": "uint16",
          "name": "",
          "type": "uint16"
        }
      ],
      "payable": false,
      "stateMutability": "view",
      "type": "function"
    },
    {
      "constant": false,
      "inputs": [],
      "name": "addCrowd",
      "outputs": [
        {
          "internalType": "uint32",
          "name": "",
          "type": "uint32"
        }
      ],
      "payable": false,
      "stateMutability": "nonpayable",
      "type": "function"
    },
    {
      "constant": false,
      "inputs": [
        {
          "internalType": "uint256",
          "name": "id",
          "type": "uint256"
        }
      ],
      "name": "clearCrowDensity",
      "outputs": [],
      "payable": false,
      "stateMutability": "nonpayable",
      "type": "function"
    },
    {
      "constant": false,
      "inputs": [
        {
          "internalType": "uint256",
          "name": "StartToMidNum",
          "type": "uint256"
        }
      ],
      "name": "coolTimeCount",
      "outputs": [
        {
          "internalType": "uint256",
          "name": "",
          "type": "uint256"
        }
      ],
      "payable": false,
      "stateMutability": "nonpayable",
      "type": "function"
    },
    {
      "constant": true,
      "inputs": [
        {
          "internalType": "address",
          "name": "",
          "type": "address"
        }
      ],
      "name": "cooldownTime",
      "outputs": [
        {
          "internalType": "uint256",
          "name": "",
          "type": "uint256"
        }
      ],
      "payable": false,
      "stateMutability": "view",
      "type": "function"
    },
    {
      "constant": true,
      "inputs": [],
      "name": "cooldownTimeView",
      "outputs": [
        {
          "internalType": "uint256",
          "name": "",
          "type": "uint256"
        }
      ],
      "payable": false,
      "stateMutability": "view",
      "type": "function"
    },
    {
      "constant": false,
      "inputs": [
        {
          "internalType": "string",
          "name": "_name",
          "type": "string"
        },
        {
          "internalType": "uint8",
          "name": "level",
          "type": "uint8"
        },
        {
          "internalType": "uint32",
          "name": "CrowdDensity",
          "type": "uint32"
        }
      ],
      "name": "createStaion",
      "outputs": [
        {
          "internalType": "string",
          "name": "",
          "type": "string"
        },
        {
          "internalType": "uint8",
          "name": "",
          "type": "uint8"
        },
        {
          "internalType": "uint32",
          "name": "",
          "type": "uint32"
        }
      ],
      "payable": false,
      "stateMutability": "nonpayable",
      "type": "function"
    },
    {
      "constant": true,
      "inputs": [
        {
          "internalType": "uint256",
          "name": "id",
          "type": "uint256"
        }
      ],
      "name": "getStaion",
      "outputs": [
        {
          "internalType": "string",
          "name": "",
          "type": "string"
        },
        {
          "internalType": "uint8",
          "name": "",
          "type": "uint8"
        },
        {
          "internalType": "uint32",
          "name": "",
          "type": "uint32"
        },
        {
          "internalType": "uint256",
          "name": "",
          "type": "uint256"
        }
      ],
      "payable": false,
      "stateMutability": "view",
      "type": "function"
    },
    {
      "constant": true,
      "inputs": [],
      "name": "getStaionNum",
      "outputs": [
        {
          "internalType": "uint256",
          "name": "",
          "type": "uint256"
        }
      ],
      "payable": false,
      "stateMutability": "view",
      "type": "function"
    },
    {
      "constant": true,
      "inputs": [],
      "name": "isOwner",
      "outputs": [
        {
          "internalType": "bool",
          "name": "",
          "type": "bool"
        }
      ],
      "payable": false,
      "stateMutability": "view",
      "type": "function"
    },
    {
      "constant": true,
      "inputs": [
        {
          "internalType": "uint256",
          "name": "id",
          "type": "uint256"
        }
      ],
      "name": "levelview",
      "outputs": [
        {
          "internalType": "uint8",
          "name": "",
          "type": "uint8"
        }
      ],
      "payable": false,
      "stateMutability": "view",
      "type": "function"
    },
    {
      "constant": true,
      "inputs": [],
      "name": "owner",
      "outputs": [
        {
          "internalType": "address",
          "name": "",
          "type": "address"
        }
      ],
      "payable": false,
      "stateMutability": "view",
      "type": "function"
    },
    {
      "constant": false,
      "inputs": [],
      "name": "renounceOwnership",
      "outputs": [],
      "payable": false,
      "stateMutability": "nonpayable",
      "type": "function"
    },
    {
      "constant": true,
      "inputs": [
        {
          "internalType": "uint256",
          "name": "",
          "type": "uint256"
        }
      ],
      "name": "stations",
      "outputs": [
        {
          "internalType": "string",
          "name": "name",
          "type": "string"
        },
        {
          "internalType": "uint8",
          "name": "level",
          "type": "uint8"
        },
        {
          "internalType": "uint32",
          "name": "CrowdDensity",
          "type": "uint32"
        }
      ],
      "payable": false,
      "stateMutability": "view",
      "type": "function"
    },
    {
      "constant": false,
      "inputs": [],
      "name": "subCrowd",
      "outputs": [
        {
          "internalType": "uint32",
          "name": "",
          "type": "uint32"
        }
      ],
      "payable": false,
      "stateMutability": "nonpayable",
      "type": "function"
    },
    {
      "constant": false,
      "inputs": [
        {
          "internalType": "address",
          "name": "newOwner",
          "type": "address"
        }
      ],
      "name": "transferOwnership",
      "outputs": [],
      "payable": false,
      "stateMutability": "nonpayable",
      "type": "function"
    },
    {
      "constant": false,
      "inputs": [
        {
          "internalType": "uint256",
          "name": "id",
          "type": "uint256"
        }
      ],
      "name": "updateLevel",
      "outputs": [
        {
          "internalType": "uint8",
          "name": "",
          "type": "uint8"
        }
      ],
      "payable": false,
      "stateMutability": "nonpayable",
      "type": "function"
    },
    {
      "constant": false,
      "inputs": [
        {
          "internalType": "uint256",
          "name": "price",
          "type": "uint256"
        },
        {
          "internalType": "uint8",
          "name": "id",
          "type": "uint8"
        },
        {
          "internalType": "uint256",
          "name": "StartToMidNum",
          "type": "uint256"
        }
      ],
      "name": "GetVote",
      "outputs": [
        {
          "internalType": "uint256",
          "name": "",
          "type": "uint256"
        },
        {
          "internalType": "uint8",
          "name": "",
          "type": "uint8"
        }
      ],
      "payable": true,
      "stateMutability": "payable",
      "type": "function"
    },
    {
      "constant": true,
      "inputs": [],
      "name": "getVoteN",
      "outputs": [
        {
          "internalType": "uint16",
          "name": "",
          "type": "uint16"
        }
      ],
      "payable": false,
      "stateMutability": "view",
      "type": "function"
    },
    {
      "constant": true,
      "inputs": [],
      "name": "ChooseStation",
      "outputs": [
        {
          "internalType": "uint8",
          "name": "",
          "type": "uint8"
        }
      ],
      "payable": false,
      "stateMutability": "view",
      "type": "function"
    }
  ],
  "bytecode": "0x60806040526100126100d260201b60201c565b6000806101000a81548173ffffffffffffffffffffffffffffffffffffffff021916908373ffffffffffffffffffffffffffffffffffffffff1602179055506000809054906101000a900473ffffffffffffffffffffffffffffffffffffffff1673ffffffffffffffffffffffffffffffffffffffff16600073ffffffffffffffffffffffffffffffffffffffff167f8be0079c531659141344cd1fd0a4f28419497f9722a3daafe3b4186f6b6457e060405160405180910390a36100da565b600033905090565b611e5d806100e96000396000f3fe6080604052600436106101405760003560e01c806354f7bc6f116100b657806392f859db1161006f57806392f859db14610742578063a9a5dd4114610816578063c3b5db9114610882578063c7d696cf146108d1578063ccb83b351461093e578063f2fde38b146109a957610140565b806354f7bc6f146105e6578063715018a61461061557806384890fc21461062c5780638da5cb5b146106675780638f32d59b146106be57806392e0150b146106ed57610140565b806322585e5a1161010857806322585e5a146104335780632e3f71a9146104885780633308c443146104b9578063428904ab1461051f57806344486af81461054a57806347f8c5bf146105af57610140565b8063037cf65114610145578063082034a6146102c35780630fb1f0e6146102ee57806311a9593f146103255780631cd3478814610400575b600080fd5b34801561015157600080fd5b506102286004803603606081101561016857600080fd5b810190808035906020019064010000000081111561018557600080fd5b82018360208201111561019757600080fd5b803590602001918460018302840111640100000000831117156101b957600080fd5b91908080601f016020809104026020016040519081016040528093929190818152602001838380828437600081840152601f19601f820116905080830192505050505050509192919290803560ff169060200190929190803563ffffffff1690602001909291905050506109fa565b60405180806020018460ff1660ff1681526020018363ffffffff1663ffffffff168152602001828103825285818151815260200191508051906020019080838360005b8381101561028657808201518184015260208101905061026b565b50505050905090810190601f1680156102b35780820380516001836020036101000a031916815260200191505b5094505050505060405180910390f35b3480156102cf57600080fd5b506102d8610c6c565b6040518082815260200191505060405180910390f35b3480156102fa57600080fd5b50610303610cb3565b604051808263ffffffff1663ffffffff16815260200191505060405180910390f35b34801561033157600080fd5b5061035e6004803603602081101561034857600080fd5b8101908080359060200190929190505050610dc6565b60405180806020018560ff1660ff1681526020018463ffffffff1663ffffffff168152602001838152602001828103825286818151815260200191508051906020019080838360005b838110156103c25780820151818401526020810190506103a7565b50505050905090810190601f1680156103ef5780820380516001836020036101000a031916815260200191505b509550505050505060405180910390f35b34801561040c57600080fd5b50610415610ef2565b604051808261ffff1661ffff16815260200191505060405180910390f35b34801561043f57600080fd5b5061046c6004803603602081101561045657600080fd5b8101908080359060200190929190505050610f47565b604051808260ff1660ff16815260200191505060405180910390f35b34801561049457600080fd5b5061049d610f7c565b604051808260ff1660ff16815260200191505060405180910390f35b6104fc600480360360608110156104cf57600080fd5b8101908080359060200190929190803560ff16906020019092919080359060200190929190505050610fd0565b604051808381526020018260ff1660ff1681526020019250505060405180910390f35b34801561052b57600080fd5b50610534611196565b6040518082815260200191505060405180910390f35b34801561055657600080fd5b506105996004803603602081101561056d57600080fd5b81019080803573ffffffffffffffffffffffffffffffffffffffff1690602001909291905050506111a8565b6040518082815260200191505060405180910390f35b3480156105bb57600080fd5b506105c46111c0565b604051808263ffffffff1663ffffffff16815260200191505060405180910390f35b3480156105f257600080fd5b506105fb6112d3565b604051808215151515815260200191505060405180910390f35b34801561062157600080fd5b5061062a611356565b005b34801561063857600080fd5b506106656004803603602081101561064f57600080fd5b810190808035906020019092919050505061148f565b005b34801561067357600080fd5b5061067c61156b565b604051808273ffffffffffffffffffffffffffffffffffffffff1673ffffffffffffffffffffffffffffffffffffffff16815260200191505060405180910390f35b3480156106ca57600080fd5b506106d3611594565b604051808215151515815260200191505060405180910390f35b3480156106f957600080fd5b506107266004803603602081101561071057600080fd5b81019080803590602001909291905050506115f2565b604051808260ff1660ff16815260200191505060405180910390f35b34801561074e57600080fd5b5061077b6004803603602081101561076557600080fd5b81019080803590602001909291905050506117d2565b60405180806020018460ff1660ff1681526020018363ffffffff1663ffffffff168152602001828103825285818151815260200191508051906020019080838360005b838110156107d95780820151818401526020810190506107be565b50505050905090810190601f1680156108065780820380516001836020036101000a031916815260200191505b5094505050505060405180910390f35b34801561082257600080fd5b5061085f6004803603604081101561083957600080fd5b81019080803560ff169060200190929190803560ff1690602001909291905050506118be565b604051808381526020018260ff1660ff1681526020019250505060405180910390f35b34801561088e57600080fd5b506108bb600480360360208110156108a557600080fd5b8101908080359060200190929190505050611a54565b6040518082815260200191505060405180910390f35b3480156108dd57600080fd5b50610920600480360360208110156108f457600080fd5b81019080803573ffffffffffffffffffffffffffffffffffffffff169060200190929190505050611ae8565b604051808261ffff1661ffff16815260200191505060405180910390f35b34801561094a57600080fd5b5061098d6004803603602081101561096157600080fd5b81019080803573ffffffffffffffffffffffffffffffffffffffff169060200190929190505050611b09565b604051808260ff1660ff16815260200191505060405180910390f35b3480156109b557600080fd5b506109f8600480360360208110156109cc57600080fd5b81019080803573ffffffffffffffffffffffffffffffffffffffff169060200190929190505050611b29565b005b6060600080610a07611594565b610a79576040517f08c379a00000000000000000000000000000000000000000000000000000000081526004018080602001828103825260208152602001807f4f776e61626c653a2063616c6c6572206973206e6f7420746865206f776e657281525060200191505060405180910390fd5b6000610b4560018060405180606001604052808b81526020018a60ff1681526020018963ffffffff16815250908060018154018082558091505090600182039060005260206000209060020201600090919290919091506000820151816000019080519060200190610aec929190611d5d565b5060208201518160010160006101000a81548160ff021916908360ff16021790555060408201518160010160016101000a81548163ffffffff021916908363ffffffff1602179055505050611baf90919063ffffffff16565b905060018181548110610b5457fe5b906000526020600020906002020160000160018281548110610b7257fe5b906000526020600020906002020160010160009054906101000a900460ff1660018381548110610b9e57fe5b906000526020600020906002020160010160019054906101000a900463ffffffff16828054600181600116156101000203166002900480601f016020809104026020016040519081016040528092919081815260200182805460018160011615610100020316600290048015610c555780601f10610c2a57610100808354040283529160200191610c55565b820191906000526020600020905b815481529060010190602001808311610c3857829003601f168201915b505050505092509350935093505093509350939050565b6000600260003373ffffffffffffffffffffffffffffffffffffffff1673ffffffffffffffffffffffffffffffffffffffff16815260200190815260200160002054905090565b600080600360003373ffffffffffffffffffffffffffffffffffffffff1673ffffffffffffffffffffffffffffffffffffffff16815260200190815260200160002060009054906101000a900460ff169050610d4f6001808360ff1681548110610d1957fe5b906000526020600020906002020160010160019054906101000a900463ffffffff1663ffffffff16611bc690919063ffffffff16565b60018260ff1681548110610d5f57fe5b906000526020600020906002020160010160016101000a81548163ffffffff021916908363ffffffff16021790555060018160ff1681548110610d9e57fe5b906000526020600020906002020160010160019054906101000a900463ffffffff1691505090565b6060600080600060018581548110610dda57fe5b906000526020600020906002020160000160018681548110610df857fe5b906000526020600020906002020160010160009054906101000a900460ff1660018781548110610e2457fe5b906000526020600020906002020160010160019054906101000a900463ffffffff1687838054600181600116156101000203166002900480601f016020809104026020016040519081016040528092919081815260200182805460018160011615610100020316600290048015610edc5780601f10610eb157610100808354040283529160200191610edc565b820191906000526020600020905b815481529060010190602001808311610ebf57829003601f168201915b5050505050935093509350935093509193509193565b6000600460003373ffffffffffffffffffffffffffffffffffffffff1673ffffffffffffffffffffffffffffffffffffffff16815260200190815260200160002060009054906101000a900461ffff16905090565b600060018281548110610f5657fe5b906000526020600020906002020160010160009054906101000a900460ff169050919050565b6000600360003373ffffffffffffffffffffffffffffffffffffffff1673ffffffffffffffffffffffffffffffffffffffff16815260200190815260200160002060009054906101000a900460ff16905090565b600080843414610fdf57600080fd5b6000600460003373ffffffffffffffffffffffffffffffffffffffff1673ffffffffffffffffffffffffffffffffffffffff16815260200190815260200160002060009054906101000a900461ffff1661ffff161461103d57600080fd5b6001600460003373ffffffffffffffffffffffffffffffffffffffff1673ffffffffffffffffffffffffffffffffffffffff16815260200190815260200160002060009054906101000a900461ffff1601600460003373ffffffffffffffffffffffffffffffffffffffff1673ffffffffffffffffffffffffffffffffffffffff16815260200190815260200160002060006101000a81548161ffff021916908361ffff16021790555083600360003373ffffffffffffffffffffffffffffffffffffffff1673ffffffffffffffffffffffffffffffffffffffff16815260200190815260200160002060006101000a81548160ff021916908360ff16021790555061114883611a54565b50600260003373ffffffffffffffffffffffffffffffffffffffff1673ffffffffffffffffffffffffffffffffffffffff168152602001908152602001600020548491509150935093915050565b60008060018054905090508091505090565b60026020528060005260406000206000915090505481565b600080600360003373ffffffffffffffffffffffffffffffffffffffff1673ffffffffffffffffffffffffffffffffffffffff16815260200190815260200160002060009054906101000a900460ff16905061125c6001808360ff168154811061122657fe5b906000526020600020906002020160010160019054906101000a900463ffffffff1663ffffffff16611be990919063ffffffff16565b60018260ff168154811061126c57fe5b906000526020600020906002020160010160016101000a81548163ffffffff021916908363ffffffff16021790555060018160ff16815481106112ab57fe5b906000526020600020906002020160010160019054906101000a900463ffffffff1691505090565b60006112dd611594565b61134f576040517f08c379a00000000000000000000000000000000000000000000000000000000081526004018080602001828103825260208152602001807f4f776e61626c653a2063616c6c6572206973206e6f7420746865206f776e657281525060200191505060405180910390fd5b6001905090565b61135e611594565b6113d0576040517f08c379a00000000000000000000000000000000000000000000000000000000081526004018080602001828103825260208152602001807f4f776e61626c653a2063616c6c6572206973206e6f7420746865206f776e657281525060200191505060405180910390fd5b600073ffffffffffffffffffffffffffffffffffffffff166000809054906101000a900473ffffffffffffffffffffffffffffffffffffffff1673ffffffffffffffffffffffffffffffffffffffff167f8be0079c531659141344cd1fd0a4f28419497f9722a3daafe3b4186f6b6457e060405160405180910390a360008060006101000a81548173ffffffffffffffffffffffffffffffffffffffff021916908373ffffffffffffffffffffffffffffffffffffffff160217905550565b611497611594565b611509576040517f08c379a00000000000000000000000000000000000000000000000000000000081526004018080602001828103825260208152602001807f4f776e61626c653a2063616c6c6572206973206e6f7420746865206f776e657281525060200191505060405180910390fd5b60008090505b818160ff161161156757600060018260ff168154811061152b57fe5b906000526020600020906002020160010160016101000a81548163ffffffff021916908363ffffffff160217905550808060010191505061150f565b5050565b60008060009054906101000a900473ffffffffffffffffffffffffffffffffffffffff16905090565b60008060009054906101000a900473ffffffffffffffffffffffffffffffffffffffff1673ffffffffffffffffffffffffffffffffffffffff166115d6611c11565b73ffffffffffffffffffffffffffffffffffffffff1614905090565b600060506001838154811061160357fe5b906000526020600020906002020160010160019054906101000a900463ffffffff1663ffffffff161161166d5760006001838154811061163f57fe5b906000526020600020906002020160010160006101000a81548160ff021916908360ff16021790555061179f565b60506001838154811061167c57fe5b906000526020600020906002020160010160019054906101000a900463ffffffff1663ffffffff161180156116e6575060c8600183815481106116bb57fe5b906000526020600020906002020160010160019054906101000a900463ffffffff1663ffffffff1611155b156117275760018083815481106116f957fe5b906000526020600020906002020160010160006101000a81548160ff021916908360ff16021790555061179e565b60c86001838154811061173657fe5b906000526020600020906002020160010160019054906101000a900463ffffffff1663ffffffff16111561179d5760026001838154811061177357fe5b906000526020600020906002020160010160006101000a81548160ff021916908360ff1602179055505b5b5b600182815481106117ac57fe5b906000526020600020906002020160010160009054906101000a900460ff169050919050565b600181815481106117df57fe5b9060005260206000209060020201600091509050806000018054600181600116156101000203166002900480601f01602080910402602001604051908101604052809291908181526020018280546001816001161561010002031660029004801561188b5780601f106118605761010080835404028352916020019161188b565b820191906000526020600020905b81548152906001019060200180831161186e57829003601f168201915b5050505050908060010160009054906101000a900460ff16908060010160019054906101000a900463ffffffff16905083565b6000806000809050600080905060008090508660ff166000111580156118e8575060058760ff1611155b156118fc5766038d7ea4c680009150611967565b60058760ff16118015611913575060108760ff1611155b1561192757660e35fa931a00009150611966565b60108760ff1611156119655760108703965066038d7ea4c680006001600a8960ff168161195057fe5b060260040160ff160266ffffffffffffff1691505b5b5b600060018760ff168154811061197957fe5b906000526020600020906002020160010160009054906101000a900460ff1660ff1614156119b05766038d7ea4c680009050611a3f565b6001808760ff16815481106119c157fe5b906000526020600020906002020160010160009054906101000a900460ff1660ff1614156119f85766071afd498d00009050611a3e565b600260018760ff1681548110611a0a57fe5b906000526020600020906002020160010160009054906101000a900460ff1660ff161415611a3d57660e35fa931a000090505b5b5b81810192508286945094505050509250929050565b600061ea606005830202600260003373ffffffffffffffffffffffffffffffffffffffff1673ffffffffffffffffffffffffffffffffffffffff16815260200190815260200160002081905550600260003373ffffffffffffffffffffffffffffffffffffffff1673ffffffffffffffffffffffffffffffffffffffff168152602001908152602001600020549050919050565b60046020528060005260406000206000915054906101000a900461ffff1681565b60036020528060005260406000206000915054906101000a900460ff1681565b611b31611594565b611ba3576040517f08c379a00000000000000000000000000000000000000000000000000000000081526004018080602001828103825260208152602001807f4f776e61626c653a2063616c6c6572206973206e6f7420746865206f776e657281525060200191505060405180910390fd5b611bac81611c19565b50565b600082821115611bbb57fe5b818303905092915050565b60008263ffffffff168263ffffffff161115611bde57fe5b818303905092915050565b60008082840190508363ffffffff168163ffffffff161015611c0757fe5b8091505092915050565b600033905090565b600073ffffffffffffffffffffffffffffffffffffffff168173ffffffffffffffffffffffffffffffffffffffff161415611c9f576040517f08c379a0000000000000000000000000000000000000000000000000000000008152600401808060200182810382526026815260200180611e036026913960400191505060405180910390fd5b8073ffffffffffffffffffffffffffffffffffffffff166000809054906101000a900473ffffffffffffffffffffffffffffffffffffffff1673ffffffffffffffffffffffffffffffffffffffff167f8be0079c531659141344cd1fd0a4f28419497f9722a3daafe3b4186f6b6457e060405160405180910390a3806000806101000a81548173ffffffffffffffffffffffffffffffffffffffff021916908373ffffffffffffffffffffffffffffffffffffffff16021790555050565b828054600181600116156101000203166002900490600052602060002090601f016020900481019282601f10611d9e57805160ff1916838001178555611dcc565b82800160010185558215611dcc579182015b82811115611dcb578251825591602001919060010190611db0565b5b509050611dd99190611ddd565b5090565b611dff91905b80821115611dfb576000816000905550600101611de3565b5090565b9056fe4f776e61626c653a206e6577206f776e657220697320746865207a65726f2061646472657373a265627a7a72315820a53f0888076d72c7970465ed8febb9403e024fb2bf5cd3251e46e86256f842f864736f6c63430005100032",
  "source": "pragma solidity ^0.5.10;\r\n\r\nimport \"./LightRail.sol\";\r\n\r\n\r\ncontract PayVote is LightRail {\r\n    mapping(address => uint16) public VoteNum;\r\n   \r\n\r\n\r\n    function GetVote(uint price,uint8 id,uint256 StartToMidNum) public payable returns (uint, uint8) {\r\n        require(msg.value == price);\r\n        require(VoteNum[msg.sender] == 0);\r\n        VoteNum[msg.sender] = VoteNum[msg.sender] + 1;\r\n        Choose[msg.sender] = id; //,\r\n        coolTimeCount(StartToMidNum);\r\n        return(cooldownTime[msg.sender], id);\r\n    } //\r\n\r\n    function getVoteN() public view returns (uint16) {\r\n        return VoteNum[msg.sender];\r\n    }\r\n\r\n    function ChooseStation() public view returns (uint8) {\r\n        return Choose[msg.sender];\r\n    } //\r\n}\r\n",
  "sourcePath": "D:/blockChain/TrainDiversionSystem/contracts/payVote.sol",
  "compiler": {
    "name": "solc",
    "version": "0.5.16+commit.9c3226ce.Emscripten.clang"
  },
  "schemaVersion": "3.0.22",
  "updatedAt": "2020-06-12T15:16:41.384Z",
  "networkType": "ethereum",
  "devdoc": {
    "methods": {
      "isOwner()": {
        "details": "Returns true if the caller is the current owner."
      },
      "owner()": {
        "details": "Returns the address of the current owner."
      },
      "renounceOwnership()": {
        "details": "Leaves the contract without owner. It will not be possible to call `onlyOwner` functions anymore. Can only be called by the current owner.      * NOTE: Renouncing ownership will leave the contract without an owner, thereby removing any functionality that is only available to the owner."
      },
      "transferOwnership(address)": {
        "details": "Transfers ownership of the contract to a new account (`newOwner`). Can only be called by the current owner."
      }
    }
  },
  "userdoc": {
    "methods": {}
  }
}