{
  "contractName": "ZombieBattle",
  "abi": [
    {
      "anonymous": false,
      "inputs": [
        {
          "indexed": false,
          "internalType": "uint256",
          "name": "zombieId",
          "type": "uint256"
        },
        {
          "indexed": false,
          "internalType": "string",
          "name": "name",
          "type": "string"
        },
        {
          "indexed": false,
          "internalType": "uint256",
          "name": "dna",
          "type": "uint256"
        }
      ],
      "name": "NewZombie",
      "type": "event"
    },
    {
      "anonymous": false,
      "inputs": [
        {
          "indexed": true,
          "internalType": "address",
          "name": "previousOwner",
          "type": "address"
        },
        {
          "indexed": true,
          "internalType": "address",
          "name": "newOwner",
          "type": "address"
        }
      ],
      "name": "OwnershipTransferred",
      "type": "event"
    },
    {
      "constant": false,
      "inputs": [
        {
          "internalType": "uint256",
          "name": "_zombieId",
          "type": "uint256"
        },
        {
          "internalType": "uint256",
          "name": "_newDna",
          "type": "uint256"
        }
      ],
      "name": "changeDna",
      "outputs": [],
      "payable": false,
      "stateMutability": "nonpayable",
      "type": "function"
    },
    {
      "constant": false,
      "inputs": [
        {
          "internalType": "uint256",
          "name": "_zombieId",
          "type": "uint256"
        },
        {
          "internalType": "string",
          "name": "_newName",
          "type": "string"
        }
      ],
      "name": "changeName",
      "outputs": [],
      "payable": false,
      "stateMutability": "nonpayable",
      "type": "function"
    },
    {
      "constant": false,
      "inputs": [
        {
          "internalType": "string",
          "name": "_name",
          "type": "string"
        }
      ],
      "name": "createRandomZombie",
      "outputs": [],
      "payable": false,
      "stateMutability": "nonpayable",
      "type": "function"
    },
    {
      "constant": false,
      "inputs": [
        {
          "internalType": "uint256",
          "name": "_zombieId",
          "type": "uint256"
        },
        {
          "internalType": "uint256",
          "name": "_kittyId",
          "type": "uint256"
        }
      ],
      "name": "feedOnKitty",
      "outputs": [],
      "payable": false,
      "stateMutability": "nonpayable",
      "type": "function"
    },
    {
      "constant": true,
      "inputs": [
        {
          "internalType": "address",
          "name": "_owner",
          "type": "address"
        }
      ],
      "name": "getZombiesByOwner",
      "outputs": [
        {
          "internalType": "uint256[]",
          "name": "result",
          "type": "uint256[]"
        }
      ],
      "payable": false,
      "stateMutability": "view",
      "type": "function"
    },
    {
      "constant": true,
      "inputs": [],
      "name": "isOwner",
      "outputs": [
        {
          "internalType": "bool",
          "name": "",
          "type": "bool"
        }
      ],
      "payable": false,
      "stateMutability": "view",
      "type": "function"
    },
    {
      "constant": false,
      "inputs": [
        {
          "internalType": "uint256",
          "name": "_zombieId",
          "type": "uint256"
        }
      ],
      "name": "levelUp",
      "outputs": [],
      "payable": true,
      "stateMutability": "payable",
      "type": "function"
    },
    {
      "constant": true,
      "inputs": [],
      "name": "owner",
      "outputs": [
        {
          "internalType": "address",
          "name": "",
          "type": "address"
        }
      ],
      "payable": false,
      "stateMutability": "view",
      "type": "function"
    },
    {
      "constant": false,
      "inputs": [],
      "name": "renounceOwnership",
      "outputs": [],
      "payable": false,
      "stateMutability": "nonpayable",
      "type": "function"
    },
    {
      "constant": false,
      "inputs": [
        {
          "internalType": "address",
          "name": "_address",
          "type": "address"
        }
      ],
      "name": "setKittyContractAddress",
      "outputs": [],
      "payable": false,
      "stateMutability": "nonpayable",
      "type": "function"
    },
    {
      "constant": false,
      "inputs": [
        {
          "internalType": "uint256",
          "name": "_fee",
          "type": "uint256"
        }
      ],
      "name": "setLevelUpFee",
      "outputs": [],
      "payable": false,
      "stateMutability": "nonpayable",
      "type": "function"
    },
    {
      "constant": false,
      "inputs": [
        {
          "internalType": "address",
          "name": "newOwner",
          "type": "address"
        }
      ],
      "name": "transferOwnership",
      "outputs": [],
      "payable": false,
      "stateMutability": "nonpayable",
      "type": "function"
    },
    {
      "constant": true,
      "inputs": [
        {
          "internalType": "uint256",
          "name": "",
          "type": "uint256"
        }
      ],
      "name": "zombieToOwner",
      "outputs": [
        {
          "internalType": "address",
          "name": "",
          "type": "address"
        }
      ],
      "payable": false,
      "stateMutability": "view",
      "type": "function"
    },
    {
      "constant": true,
      "inputs": [
        {
          "internalType": "uint256",
          "name": "",
          "type": "uint256"
        }
      ],
      "name": "zombies",
      "outputs": [
        {
          "internalType": "string",
          "name": "name",
          "type": "string"
        },
        {
          "internalType": "uint256",
          "name": "dna",
          "type": "uint256"
        },
        {
          "internalType": "uint32",
          "name": "level",
          "type": "uint32"
        },
        {
          "internalType": "uint32",
          "name": "readyTime",
          "type": "uint32"
        },
        {
          "internalType": "uint16",
          "name": "winCount",
          "type": "uint16"
        },
        {
          "internalType": "uint16",
          "name": "lossCount",
          "type": "uint16"
        }
      ],
      "payable": false,
      "stateMutability": "view",
      "type": "function"
    },
    {
      "constant": false,
      "inputs": [
        {
          "internalType": "uint256",
          "name": "_zombieId",
          "type": "uint256"
        },
        {
          "internalType": "uint256",
          "name": "_targetId",
          "type": "uint256"
        }
      ],
      "name": "attack",
      "outputs": [],
      "payable": false,
      "stateMutability": "nonpayable",
      "type": "function"
    }
  ],
  "bytecode": "0x60806040526010600155600154600a0a6002556201518060035566038d7ea4c6800060085560006009556046600a5561003c6100fc60201b60201c565b6000806101000a81548173ffffffffffffffffffffffffffffffffffffffff021916908373ffffffffffffffffffffffffffffffffffffffff1602179055506000809054906101000a900473ffffffffffffffffffffffffffffffffffffffff1673ffffffffffffffffffffffffffffffffffffffff16600073ffffffffffffffffffffffffffffffffffffffff167f8be0079c531659141344cd1fd0a4f28419497f9722a3daafe3b4186f6b6457e060405160405180910390a3610104565b600033905090565b611d32806101136000396000f3fe6080604052600436106100e85760003560e01c8063715018a61161008a578063c39cbef111610059578063c39cbef11461057b578063ccf670f81461060b578063e1fa763814610646578063f2fde38b1461068b576100e8565b8063715018a6146104165780637bff0a011461042d5780638da5cb5b146104f55780638f32d59b1461054c576100e8565b80634412e104116100c65780634412e1041461025f578063528b7b8f146103055780635f4623f1146103805780635faf2880146103d1576100e8565b80630ce90ec2146100ed57806317a7f4cc1461011b5780632052465e14610160575b600080fd5b6101196004803603602081101561010357600080fd5b81019080803590602001909291905050506106dc565b005b34801561012757600080fd5b5061015e6004803603604081101561013e57600080fd5b810190808035906020019092919080359060200190929190505050610771565b005b34801561016c57600080fd5b506101996004803603602081101561018357600080fd5b81019080803590602001909291905050506108fc565b60405180806020018781526020018663ffffffff1663ffffffff1681526020018563ffffffff1663ffffffff1681526020018461ffff1661ffff1681526020018361ffff1661ffff168152602001828103825288818151815260200191508051906020019080838360005b8381101561021f578082015181840152602081019050610204565b50505050905090810190601f16801561024c5780820380516001836020036101000a031916815260200191505b5097505050505050505060405180910390f35b34801561026b57600080fd5b506102ae6004803603602081101561028257600080fd5b81019080803573ffffffffffffffffffffffffffffffffffffffff169060200190929190505050610a19565b6040518080602001828103825283818151815260200191508051906020019060200280838360005b838110156102f15780820151818401526020810190506102d6565b505050509050019250505060405180910390f35b34801561031157600080fd5b5061033e6004803603602081101561032857600080fd5b8101908080359060200190929190505050610b44565b604051808273ffffffffffffffffffffffffffffffffffffffff1673ffffffffffffffffffffffffffffffffffffffff16815260200191505060405180910390f35b34801561038c57600080fd5b506103cf600480360360208110156103a357600080fd5b81019080803573ffffffffffffffffffffffffffffffffffffffff169060200190929190505050610b77565b005b3480156103dd57600080fd5b50610414600480360360408110156103f457600080fd5b810190808035906020019092919080359060200190929190505050610c35565b005b34801561042257600080fd5b5061042b610d0f565b005b34801561043957600080fd5b506104f36004803603602081101561045057600080fd5b810190808035906020019064010000000081111561046d57600080fd5b82018360208201111561047f57600080fd5b803590602001918460018302840111640100000000831117156104a157600080fd5b91908080601f016020809104026020016040519081016040528093929190818152602001838380828437600081840152601f19601f820116905080830192505050505050509192919290505050610e48565b005b34801561050157600080fd5b5061050a610eaf565b604051808273ffffffffffffffffffffffffffffffffffffffff1673ffffffffffffffffffffffffffffffffffffffff16815260200191505060405180910390f35b34801561055857600080fd5b50610561610ed8565b604051808215151515815260200191505060405180910390f35b34801561058757600080fd5b506106096004803603604081101561059e57600080fd5b8101908080359060200190929190803590602001906401000000008111156105c557600080fd5b8201836020820111156105d757600080fd5b803590602001918460018302840111640100000000831117156105f957600080fd5b9091929391929390505050610f36565b005b34801561061757600080fd5b506106446004803603602081101561062e57600080fd5b810190808035906020019092919050505061101c565b005b34801561065257600080fd5b506106896004803603604081101561066957600080fd5b8101908080359060200190929190803590602001909291905050506110a0565b005b34801561069757600080fd5b506106da600480360360208110156106ae57600080fd5b81019080803573ffffffffffffffffffffffffffffffffffffffff16906020019092919050505061132c565b005b60085434146106ea57600080fd5b6107326001600483815481106106fc57fe5b906000526020600020906003020160020160009054906101000a900463ffffffff1663ffffffff166113b290919063ffffffff16565b6004828154811061073f57fe5b906000526020600020906003020160020160006101000a81548163ffffffff021916908363ffffffff16021790555050565b6000600760009054906101000a900473ffffffffffffffffffffffffffffffffffffffff1673ffffffffffffffffffffffffffffffffffffffff1663e98b7f4d836040518263ffffffff1660e01b8152600401808281526020019150506101406040518083038186803b1580156107e757600080fd5b505afa1580156107fb573d6000803e3d6000fd5b505050506040513d61014081101561081257600080fd5b8101908080519060200190929190805190602001909291908051906020019092919080519060200190929190805190602001909291908051906020019092919080519060200190929190805190602001909291908051906020019092919080519060200190929190505050909192939495969798509091929394959697509091929394959650909192939495509091929394509091929350909192509091509050809150506108f783826040518060400160405280600581526020017f6b697474790000000000000000000000000000000000000000000000000000008152506113da565b505050565b6004818154811061090957fe5b9060005260206000209060030201600091509050806000018054600181600116156101000203166002900480601f0160208091040260200160405190810160405280929190818152602001828054600181600116156101000203166002900480156109b55780601f1061098a576101008083540402835291602001916109b5565b820191906000526020600020905b81548152906001019060200180831161099857829003601f168201915b5050505050908060010154908060020160009054906101000a900463ffffffff16908060020160049054906101000a900463ffffffff16908060020160089054906101000a900461ffff169080600201600a9054906101000a900461ffff16905086565b6060600660008373ffffffffffffffffffffffffffffffffffffffff1673ffffffffffffffffffffffffffffffffffffffff16815260200190815260200160002054604051908082528060200260200182016040528015610a895781602001602082028038833980820191505090505b509050600080905060008090505b600480549050811015610b3a578373ffffffffffffffffffffffffffffffffffffffff166005600083815260200190815260200160002060009054906101000a900473ffffffffffffffffffffffffffffffffffffffff1673ffffffffffffffffffffffffffffffffffffffff161415610b2d5780838381518110610b1857fe5b60200260200101818152505081806001019250505b8080600101915050610a97565b5081915050919050565b60056020528060005260406000206000915054906101000a900473ffffffffffffffffffffffffffffffffffffffff1681565b610b7f610ed8565b610bf1576040517f08c379a00000000000000000000000000000000000000000000000000000000081526004018080602001828103825260208152602001807f4f776e61626c653a2063616c6c6572206973206e6f7420746865206f776e657281525060200191505060405180910390fd5b80600760006101000a81548173ffffffffffffffffffffffffffffffffffffffff021916908373ffffffffffffffffffffffffffffffffffffffff16021790555050565b6014828160048281548110610c4657fe5b906000526020600020906003020160020160009054906101000a900463ffffffff1663ffffffff161015610c7957600080fd5b836005600082815260200190815260200160002060009054906101000a900473ffffffffffffffffffffffffffffffffffffffff1673ffffffffffffffffffffffffffffffffffffffff163373ffffffffffffffffffffffffffffffffffffffff1614610ce557600080fd5b8360048681548110610cf357fe5b9060005260206000209060030201600101819055505050505050565b610d17610ed8565b610d89576040517f08c379a00000000000000000000000000000000000000000000000000000000081526004018080602001828103825260208152602001807f4f776e61626c653a2063616c6c6572206973206e6f7420746865206f776e657281525060200191505060405180910390fd5b600073ffffffffffffffffffffffffffffffffffffffff166000809054906101000a900473ffffffffffffffffffffffffffffffffffffffff1673ffffffffffffffffffffffffffffffffffffffff167f8be0079c531659141344cd1fd0a4f28419497f9722a3daafe3b4186f6b6457e060405160405180910390a360008060006101000a81548173ffffffffffffffffffffffffffffffffffffffff021916908373ffffffffffffffffffffffffffffffffffffffff160217905550565b6000600660003373ffffffffffffffffffffffffffffffffffffffff1673ffffffffffffffffffffffffffffffffffffffff1681526020019081526020016000205414610e9457600080fd5b6000610e9f826115c5565b9050610eab828261166d565b5050565b60008060009054906101000a900473ffffffffffffffffffffffffffffffffffffffff16905090565b60008060009054906101000a900473ffffffffffffffffffffffffffffffffffffffff1673ffffffffffffffffffffffffffffffffffffffff16610f1a61193f565b73ffffffffffffffffffffffffffffffffffffffff1614905090565b6002838160048281548110610f4757fe5b906000526020600020906003020160020160009054906101000a900463ffffffff1663ffffffff161015610f7a57600080fd5b846005600082815260200190815260200160002060009054906101000a900473ffffffffffffffffffffffffffffffffffffffff1673ffffffffffffffffffffffffffffffffffffffff163373ffffffffffffffffffffffffffffffffffffffff1614610fe657600080fd5b848460048881548110610ff557fe5b90600052602060002090600302016000019190611013929190611bb2565b50505050505050565b611024610ed8565b611096576040517f08c379a00000000000000000000000000000000000000000000000000000000081526004018080602001828103825260208152602001807f4f776e61626c653a2063616c6c6572206973206e6f7420746865206f776e657281525060200191505060405180910390fd5b8060088190555050565b816005600082815260200190815260200160002060009054906101000a900473ffffffffffffffffffffffffffffffffffffffff1673ffffffffffffffffffffffffffffffffffffffff163373ffffffffffffffffffffffffffffffffffffffff161461110c57600080fd5b60006004848154811061111b57fe5b9060005260206000209060030201905060006004848154811061113a57fe5b9060005260206000209060030201905060006111566064611947565b9050600a54811161128a5761118b60018460020160089054906101000a900461ffff1661ffff166119dd90919063ffffffff16565b8360020160086101000a81548161ffff021916908361ffff1602179055506111d760018460020160009054906101000a900463ffffffff1663ffffffff166113b290919063ffffffff16565b8360020160006101000a81548163ffffffff021916908363ffffffff160217905550611223600183600201600a9054906101000a900461ffff1661ffff166119dd90919063ffffffff16565b82600201600a6101000a81548161ffff021916908361ffff1602179055506112858683600101546040518060400160405280600681526020017f7a6f6d62696500000000000000000000000000000000000000000000000000008152506113da565b611324565b6112b4600184600201600a9054906101000a900461ffff1661ffff166119dd90919063ffffffff16565b83600201600a6101000a81548161ffff021916908361ffff1602179055506112fc60018360020160089054906101000a900461ffff1661ffff166119dd90919063ffffffff16565b8260020160086101000a81548161ffff021916908361ffff16021790555061132383611a01565b5b505050505050565b611334610ed8565b6113a6576040517f08c379a00000000000000000000000000000000000000000000000000000000081526004018080602001828103825260208152602001807f4f776e61626c653a2063616c6c6572206973206e6f7420746865206f776e657281525060200191505060405180910390fd5b6113af81611a2b565b50565b60008082840190508363ffffffff168163ffffffff1610156113d057fe5b8091505092915050565b826005600082815260200190815260200160002060009054906101000a900473ffffffffffffffffffffffffffffffffffffffff1673ffffffffffffffffffffffffffffffffffffffff163373ffffffffffffffffffffffffffffffffffffffff161461144657600080fd5b60006004858154811061145557fe5b9060005260206000209060030201905061146e81611b6f565b61147757600080fd5b600254848161148257fe5b06935060006002858360010154018161149757fe5b04905060405180807f6b6974747900000000000000000000000000000000000000000000000000000081525060050190506040518091039020846040516020018080602001828103825283818151815260200191508051906020019080838360005b838110156115145780820151818401526020810190506114f9565b50505050905090810190601f1680156115415780820380516001836020036101000a031916815260200191505b50925050506040516020818303038152906040528051906020012014156115755760636064828161156e57fe5b0682030190505b6115b46040518060400160405280600681526020017f4e6f4e616d6500000000000000000000000000000000000000000000000000008152508261166d565b6115bd82611a01565b505050505050565b600080826040516020018080602001828103825283818151815260200191508051906020019080838360005b8381101561160c5780820151818401526020810190506115f1565b50505050905090810190601f1680156116395780820380516001836020036101000a031916815260200191505b50925050506040516020818303038152906040528051906020012060001c9050600254818161166457fe5b06915050919050565b6000600160046040518060c00160405280868152602001858152602001600163ffffffff168152602001600354420163ffffffff168152602001600061ffff168152602001600061ffff16815250908060018154018082558091505090600182039060005260206000209060030201600090919290919091506000820151816000019080519060200190611702929190611c32565b506020820151816001015560408201518160020160006101000a81548163ffffffff021916908363ffffffff16021790555060608201518160020160046101000a81548163ffffffff021916908363ffffffff16021790555060808201518160020160086101000a81548161ffff021916908361ffff16021790555060a082015181600201600a6101000a81548161ffff021916908361ffff1602179055505050039050336005600083815260200190815260200160002060006101000a81548173ffffffffffffffffffffffffffffffffffffffff021916908373ffffffffffffffffffffffffffffffffffffffff16021790555061184b6001600660003373ffffffffffffffffffffffffffffffffffffffff1673ffffffffffffffffffffffffffffffffffffffff16815260200190815260200160002054611b9690919063ffffffff16565b600660003373ffffffffffffffffffffffffffffffffffffffff1673ffffffffffffffffffffffffffffffffffffffff168152602001908152602001600020819055507f88f026aacbbecc90c18411df4b1185fd8d9be2470f1962f192bf84a27d0704b78184846040518084815260200180602001838152602001828103825284818151815260200191508051906020019080838360005b838110156118fe5780820151818401526020810190506118e3565b50505050905090810190601f16801561192b5780820380516001836020036101000a031916815260200191505b5094505050505060405180910390a1505050565b600033905090565b600061195f6001600954611b9690919063ffffffff16565b600981905550814233600954604051602001808481526020018373ffffffffffffffffffffffffffffffffffffffff1673ffffffffffffffffffffffffffffffffffffffff16815260200182815260200193505050506040516020818303038152906040528051906020012060001c816119d557fe5b069050919050565b60008082840190508361ffff168161ffff1610156119f757fe5b8091505092915050565b60035442018160020160046101000a81548163ffffffff021916908363ffffffff16021790555050565b600073ffffffffffffffffffffffffffffffffffffffff168173ffffffffffffffffffffffffffffffffffffffff161415611ab1576040517f08c379a0000000000000000000000000000000000000000000000000000000008152600401808060200182810382526026815260200180611cd86026913960400191505060405180910390fd5b8073ffffffffffffffffffffffffffffffffffffffff166000809054906101000a900473ffffffffffffffffffffffffffffffffffffffff1673ffffffffffffffffffffffffffffffffffffffff167f8be0079c531659141344cd1fd0a4f28419497f9722a3daafe3b4186f6b6457e060405160405180910390a3806000806101000a81548173ffffffffffffffffffffffffffffffffffffffff021916908373ffffffffffffffffffffffffffffffffffffffff16021790555050565b6000428260020160049054906101000a900463ffffffff1663ffffffff1611159050919050565b600080828401905083811015611ba857fe5b8091505092915050565b828054600181600116156101000203166002900490600052602060002090601f016020900481019282601f10611bf357803560ff1916838001178555611c21565b82800160010185558215611c21579182015b82811115611c20578235825591602001919060010190611c05565b5b509050611c2e9190611cb2565b5090565b828054600181600116156101000203166002900490600052602060002090601f016020900481019282601f10611c7357805160ff1916838001178555611ca1565b82800160010185558215611ca1579182015b82811115611ca0578251825591602001919060010190611c85565b5b509050611cae9190611cb2565b5090565b611cd491905b80821115611cd0576000816000905550600101611cb8565b5090565b9056fe4f776e61626c653a206e6577206f776e657220697320746865207a65726f2061646472657373a265627a7a72315820460db321eb65328a4aacc0e68ebc203a9c190f53835f05792e27cebeb556377764736f6c63430005100032",
  "source": "pragma solidity ^0.5.10;\r\n\r\nimport \"./zombiehelper.sol\";\r\n\r\ncontract ZombieBattle is ZombieHelper {\r\n  uint randNonce = 0;\r\n  uint attackVictoryProbability = 70;\r\n\r\n  function randMod(uint _modulus) internal returns(uint) {//\r\n    randNonce = randNonce.add(1);\r\n    return uint(keccak256( abi.encode(now, msg.sender,randNonce))) % _modulus;\r\n  }\r\n\r\n\r\n  function attack(uint _zombieId, uint _targetId) external onlyOwnerOf(_zombieId) {//\r\n    Zombie storage myZombie = zombies[_zombieId];\r\n    Zombie storage enemyZombie = zombies[_targetId];\r\n    uint rand = randMod(100);\r\n    if (rand <= attackVictoryProbability) {//\r\n      myZombie.winCount = myZombie.winCount.add(1);\r\n      myZombie.level = myZombie.level.add(1);\r\n      enemyZombie.lossCount = enemyZombie.lossCount.add(1);\r\n      feedAndMultiply(_zombieId, enemyZombie.dna, \"zombie\");\r\n    }  else {//\r\n      myZombie.lossCount = myZombie.lossCount.add(1);\r\n      enemyZombie.winCount = enemyZombie.winCount.add(1);\r\n      _triggerCooldown(myZombie);\r\n    } \r\n  }\r\n  \r\n}\r\n",
  "sourcePath": "D:\\blockChain\\TrainDiversionSystem\\contracts\\zombieattack.sol",
  "compiler": {
    "name": "solc",
    "version": "0.5.16+commit.9c3226ce.Emscripten.clang"
  },
  "schemaVersion": "3.0.22",
  "updatedAt": "2020-06-12T15:16:00.860Z",
  "devdoc": {
    "methods": {
      "isOwner()": {
        "details": "Returns true if the caller is the current owner."
      },
      "owner()": {
        "details": "Returns the address of the current owner."
      },
      "renounceOwnership()": {
        "details": "Leaves the contract without owner. It will not be possible to call `onlyOwner` functions anymore. Can only be called by the current owner.      * NOTE: Renouncing ownership will leave the contract without an owner, thereby removing any functionality that is only available to the owner."
      },
      "transferOwnership(address)": {
        "details": "Transfers ownership of the contract to a new account (`newOwner`). Can only be called by the current owner."
      }
    }
  },
  "userdoc": {
    "methods": {}
  }
}